{
  "address": "0xe40c7856B6D0e1B01dECBF9976BB706B9Cd1229f",
  "abi": [
    {
      "inputs": [
        {
          "internalType": "string",
          "name": "name_",
          "type": "string"
        },
        {
          "internalType": "string",
          "name": "symbol_",
          "type": "string"
        },
        {
          "internalType": "uint8",
          "name": "decimals_",
          "type": "uint8"
        },
        {
          "internalType": "uint256",
          "name": "maxTotalSupplyERC721_",
          "type": "uint256"
        },
        {
          "internalType": "address",
          "name": "initialOwner_",
          "type": "address"
        },
        {
          "internalType": "address",
          "name": "initialMintRecipient_",
          "type": "address"
        }
      ],
      "stateMutability": "nonpayable",
      "type": "constructor"
    },
    {
      "inputs": [],
      "name": "AlreadyExists",
      "type": "error"
    },
    {
      "inputs": [],
      "name": "CannotRemoveFromWhitelist",
      "type": "error"
    },
    {
      "inputs": [],
      "name": "DecimalsTooLow",
      "type": "error"
    },
    {
      "inputs": [],
      "name": "InsufficientAllowance",
      "type": "error"
    },
    {
      "inputs": [],
      "name": "InvalidApproval",
      "type": "error"
    },
    {
      "inputs": [],
      "name": "InvalidId",
      "type": "error"
    },
    {
      "inputs": [],
      "name": "InvalidOperator",
      "type": "error"
    },
    {
      "inputs": [],
      "name": "InvalidRecipient",
      "type": "error"
    },
    {
      "inputs": [],
      "name": "InvalidSender",
      "type": "error"
    },
    {
      "inputs": [],
      "name": "InvalidSigner",
      "type": "error"
    },
    {
      "inputs": [],
      "name": "InvalidSpender",
      "type": "error"
    },
    {
      "inputs": [],
      "name": "NotFound",
      "type": "error"
    },
    {
      "inputs": [],
      "name": "NotWhitelisted",
      "type": "error"
    },
    {
      "inputs": [
        {
          "internalType": "address",
          "name": "owner",
          "type": "address"
        }
      ],
      "name": "OwnableInvalidOwner",
      "type": "error"
    },
    {
      "inputs": [
        {
          "internalType": "address",
          "name": "account",
          "type": "address"
        }
      ],
      "name": "OwnableUnauthorizedAccount",
      "type": "error"
    },
    {
      "inputs": [],
      "name": "OwnedIndexOverflow",
      "type": "error"
    },
    {
      "inputs": [],
      "name": "PermitDeadlineExpired",
      "type": "error"
    },
    {
      "inputs": [],
      "name": "QueueEmpty",
      "type": "error"
    },
    {
      "inputs": [],
      "name": "QueueFull",
      "type": "error"
    },
    {
      "inputs": [],
      "name": "Unauthorized",
      "type": "error"
    },
    {
      "inputs": [],
      "name": "UnsafeRecipient",
      "type": "error"
    },
    {
      "anonymous": false,
      "inputs": [
        {
          "indexed": true,
          "internalType": "address",
          "name": "owner",
          "type": "address"
        },
        {
          "indexed": true,
          "internalType": "address",
          "name": "operator",
          "type": "address"
        },
        {
          "indexed": false,
          "internalType": "bool",
          "name": "approved",
          "type": "bool"
        }
      ],
      "name": "ApprovalForAll",
      "type": "event"
    },
    {
      "anonymous": false,
      "inputs": [
        {
          "indexed": false,
          "internalType": "address",
          "name": "owner",
          "type": "address"
        },
        {
          "indexed": false,
          "internalType": "address",
          "name": "spender",
          "type": "address"
        },
        {
          "indexed": false,
          "internalType": "uint256",
          "name": "value",
          "type": "uint256"
        }
      ],
      "name": "ERC20Approval",
      "type": "event"
    },
    {
      "anonymous": false,
      "inputs": [
        {
          "indexed": true,
          "internalType": "address",
          "name": "from",
          "type": "address"
        },
        {
          "indexed": true,
          "internalType": "address",
          "name": "to",
          "type": "address"
        },
        {
          "indexed": false,
          "internalType": "uint256",
          "name": "amount",
          "type": "uint256"
        }
      ],
      "name": "ERC20Transfer",
      "type": "event"
    },
    {
      "anonymous": false,
      "inputs": [
        {
          "indexed": true,
          "internalType": "address",
          "name": "owner",
          "type": "address"
        },
        {
          "indexed": true,
          "internalType": "address",
          "name": "spender",
          "type": "address"
        },
        {
          "indexed": true,
          "internalType": "uint256",
          "name": "id",
          "type": "uint256"
        }
      ],
      "name": "ERC721Approval",
      "type": "event"
    },
    {
      "anonymous": false,
      "inputs": [
        {
          "indexed": true,
          "internalType": "address",
          "name": "from",
          "type": "address"
        },
        {
          "indexed": true,
          "internalType": "address",
          "name": "to",
          "type": "address"
        },
        {
          "indexed": true,
          "internalType": "uint256",
          "name": "id",
          "type": "uint256"
        }
      ],
      "name": "ERC721Transfer",
      "type": "event"
    },
    {
      "anonymous": false,
      "inputs": [
        {
          "indexed": true,
          "internalType": "address",
          "name": "previousOwner",
          "type": "address"
        },
        {
          "indexed": true,
          "internalType": "address",
          "name": "newOwner",
          "type": "address"
        }
      ],
      "name": "OwnershipTransferred",
      "type": "event"
    },
    {
      "inputs": [],
      "name": "DOMAIN_SEPARATOR",
      "outputs": [
        {
          "internalType": "bytes32",
          "name": "",
          "type": "bytes32"
        }
      ],
      "stateMutability": "view",
      "type": "function"
    },
    {
      "inputs": [
        {
          "internalType": "address",
          "name": "",
          "type": "address"
        },
        {
          "internalType": "address",
          "name": "",
          "type": "address"
        }
      ],
      "name": "allowance",
      "outputs": [
        {
          "internalType": "uint256",
          "name": "",
          "type": "uint256"
        }
      ],
      "stateMutability": "view",
      "type": "function"
    },
    {
      "inputs": [
        {
          "internalType": "address",
          "name": "spender_",
          "type": "address"
        },
        {
          "internalType": "uint256",
          "name": "valueOrId_",
          "type": "uint256"
        }
      ],
      "name": "approve",
      "outputs": [
        {
          "internalType": "bool",
          "name": "",
          "type": "bool"
        }
      ],
      "stateMutability": "nonpayable",
      "type": "function"
    },
    {
      "inputs": [
        {
          "internalType": "address",
          "name": "",
          "type": "address"
        }
      ],
      "name": "balanceOf",
      "outputs": [
        {
          "internalType": "uint256",
          "name": "",
          "type": "uint256"
        }
      ],
      "stateMutability": "view",
      "type": "function"
    },
    {
      "inputs": [],
      "name": "baseUri_",
      "outputs": [
        {
          "internalType": "string",
          "name": "",
          "type": "string"
        }
      ],
      "stateMutability": "view",
      "type": "function"
    },
    {
      "inputs": [],
      "name": "decimals",
      "outputs": [
        {
          "internalType": "uint8",
          "name": "",
          "type": "uint8"
        }
      ],
      "stateMutability": "view",
      "type": "function"
    },
    {
      "inputs": [
        {
          "internalType": "address",
          "name": "owner_",
          "type": "address"
        }
      ],
      "name": "erc20BalanceOf",
      "outputs": [
        {
          "internalType": "uint256",
          "name": "",
          "type": "uint256"
        }
      ],
      "stateMutability": "view",
      "type": "function"
    },
    {
      "inputs": [],
      "name": "erc20TotalSupply",
      "outputs": [
        {
          "internalType": "uint256",
          "name": "",
          "type": "uint256"
        }
      ],
      "stateMutability": "view",
      "type": "function"
    },
    {
      "inputs": [
        {
          "internalType": "address",
          "name": "owner_",
          "type": "address"
        }
      ],
      "name": "erc721BalanceOf",
      "outputs": [
        {
          "internalType": "uint256",
          "name": "",
          "type": "uint256"
        }
      ],
      "stateMutability": "view",
      "type": "function"
    },
    {
      "inputs": [],
      "name": "erc721TokensBankedInQueue",
      "outputs": [
        {
          "internalType": "uint256",
          "name": "",
          "type": "uint256"
        }
      ],
      "stateMutability": "view",
      "type": "function"
    },
    {
      "inputs": [],
      "name": "erc721TotalSupply",
      "outputs": [
        {
          "internalType": "uint256",
          "name": "",
          "type": "uint256"
        }
      ],
      "stateMutability": "view",
      "type": "function"
    },
    {
      "inputs": [
        {
          "internalType": "uint256",
          "name": "",
          "type": "uint256"
        }
      ],
      "name": "getApproved",
      "outputs": [
        {
          "internalType": "address",
          "name": "",
          "type": "address"
        }
      ],
      "stateMutability": "view",
      "type": "function"
    },
    {
      "inputs": [
        {
          "internalType": "address",
          "name": "",
          "type": "address"
        },
        {
          "internalType": "address",
          "name": "",
          "type": "address"
        }
      ],
      "name": "isApprovedForAll",
      "outputs": [
        {
          "internalType": "bool",
          "name": "",
          "type": "bool"
        }
      ],
      "stateMutability": "view",
      "type": "function"
    },
    {
      "inputs": [],
      "name": "name",
      "outputs": [
        {
          "internalType": "string",
          "name": "",
          "type": "string"
        }
      ],
      "stateMutability": "view",
      "type": "function"
    },
    {
      "inputs": [
        {
          "internalType": "address",
          "name": "",
          "type": "address"
        }
      ],
      "name": "nonces",
      "outputs": [
        {
          "internalType": "uint256",
          "name": "",
          "type": "uint256"
        }
      ],
      "stateMutability": "view",
      "type": "function"
    },
    {
      "inputs": [
        {
          "internalType": "address",
          "name": "owner_",
          "type": "address"
        }
      ],
      "name": "owned",
      "outputs": [
        {
          "internalType": "uint256[]",
          "name": "",
          "type": "uint256[]"
        }
      ],
      "stateMutability": "view",
      "type": "function"
    },
    {
      "inputs": [],
      "name": "owner",
      "outputs": [
        {
          "internalType": "address",
          "name": "",
          "type": "address"
        }
      ],
      "stateMutability": "view",
      "type": "function"
    },
    {
      "inputs": [
        {
          "internalType": "uint256",
          "name": "id_",
          "type": "uint256"
        }
      ],
      "name": "ownerOf",
      "outputs": [
        {
          "internalType": "address",
          "name": "erc721Owner",
          "type": "address"
        }
      ],
      "stateMutability": "view",
      "type": "function"
    },
    {
      "inputs": [
        {
          "internalType": "address",
          "name": "owner_",
          "type": "address"
        },
        {
          "internalType": "address",
          "name": "spender_",
          "type": "address"
        },
        {
          "internalType": "uint256",
          "name": "value_",
          "type": "uint256"
        },
        {
          "internalType": "uint256",
          "name": "deadline_",
          "type": "uint256"
        },
        {
          "internalType": "uint8",
          "name": "v_",
          "type": "uint8"
        },
        {
          "internalType": "bytes32",
          "name": "r_",
          "type": "bytes32"
        },
        {
          "internalType": "bytes32",
          "name": "s_",
          "type": "bytes32"
        }
      ],
      "name": "permit",
      "outputs": [],
      "stateMutability": "nonpayable",
      "type": "function"
    },
    {
      "inputs": [],
      "name": "renounceOwnership",
      "outputs": [],
      "stateMutability": "nonpayable",
      "type": "function"
    },
    {
      "inputs": [
        {
          "internalType": "address",
          "name": "from_",
          "type": "address"
        },
        {
          "internalType": "address",
          "name": "to_",
          "type": "address"
        },
        {
          "internalType": "uint256",
          "name": "id_",
          "type": "uint256"
        }
      ],
      "name": "safeTransferFrom",
      "outputs": [],
      "stateMutability": "nonpayable",
      "type": "function"
    },
    {
      "inputs": [
        {
          "internalType": "address",
          "name": "from_",
          "type": "address"
        },
        {
          "internalType": "address",
          "name": "to_",
          "type": "address"
        },
        {
          "internalType": "uint256",
          "name": "id_",
          "type": "uint256"
        },
        {
          "internalType": "bytes",
          "name": "data_",
          "type": "bytes"
        }
      ],
      "name": "safeTransferFrom",
      "outputs": [],
      "stateMutability": "nonpayable",
      "type": "function"
    },
    {
      "inputs": [
        {
          "internalType": "address",
          "name": "operator_",
          "type": "address"
        },
        {
          "internalType": "bool",
          "name": "approved_",
          "type": "bool"
        }
      ],
      "name": "setApprovalForAll",
      "outputs": [],
      "stateMutability": "nonpayable",
      "type": "function"
    },
    {
      "inputs": [
        {
          "internalType": "string",
          "name": "uri_",
          "type": "string"
        }
      ],
      "name": "setBaseUri",
      "outputs": [],
      "stateMutability": "nonpayable",
      "type": "function"
    },
    {
      "inputs": [
        {
          "internalType": "address",
          "name": "account_",
          "type": "address"
        },
        {
          "internalType": "bool",
          "name": "value_",
          "type": "bool"
        }
      ],
      "name": "setWhitelist",
      "outputs": [],
      "stateMutability": "nonpayable",
      "type": "function"
    },
    {
      "inputs": [
        {
          "internalType": "bytes4",
          "name": "interfaceId",
          "type": "bytes4"
        }
      ],
      "name": "supportsInterface",
      "outputs": [
        {
          "internalType": "bool",
          "name": "",
          "type": "bool"
        }
      ],
      "stateMutability": "view",
      "type": "function"
    },
    {
      "inputs": [],
      "name": "symbol",
      "outputs": [
        {
          "internalType": "string",
          "name": "",
          "type": "string"
        }
      ],
      "stateMutability": "view",
      "type": "function"
    },
    {
      "inputs": [
        {
          "internalType": "uint256",
          "name": "id_",
          "type": "uint256"
        }
      ],
      "name": "tokenURI",
      "outputs": [
        {
          "internalType": "string",
          "name": "",
          "type": "string"
        }
      ],
      "stateMutability": "view",
      "type": "function"
    },
    {
      "inputs": [],
      "name": "totalSupply",
      "outputs": [
        {
          "internalType": "uint256",
          "name": "",
          "type": "uint256"
        }
      ],
      "stateMutability": "view",
      "type": "function"
    },
    {
      "inputs": [
        {
          "internalType": "address",
          "name": "to_",
          "type": "address"
        },
        {
          "internalType": "uint256",
          "name": "value_",
          "type": "uint256"
        }
      ],
      "name": "transfer",
      "outputs": [
        {
          "internalType": "bool",
          "name": "",
          "type": "bool"
        }
      ],
      "stateMutability": "nonpayable",
      "type": "function"
    },
    {
      "inputs": [
        {
          "internalType": "address",
          "name": "from_",
          "type": "address"
        },
        {
          "internalType": "address",
          "name": "to_",
          "type": "address"
        },
        {
          "internalType": "uint256",
          "name": "valueOrId_",
          "type": "uint256"
        }
      ],
      "name": "transferFrom",
      "outputs": [
        {
          "internalType": "bool",
          "name": "",
          "type": "bool"
        }
      ],
      "stateMutability": "nonpayable",
      "type": "function"
    },
    {
      "inputs": [
        {
          "internalType": "address",
          "name": "newOwner",
          "type": "address"
        }
      ],
      "name": "transferOwnership",
      "outputs": [],
      "stateMutability": "nonpayable",
      "type": "function"
    },
    {
      "inputs": [],
      "name": "units",
      "outputs": [
        {
          "internalType": "uint256",
          "name": "",
          "type": "uint256"
        }
      ],
      "stateMutability": "view",
      "type": "function"
    },
    {
      "inputs": [
        {
          "internalType": "address",
          "name": "",
          "type": "address"
        }
      ],
      "name": "whitelist",
      "outputs": [
        {
          "internalType": "bool",
          "name": "",
          "type": "bool"
        }
      ],
      "stateMutability": "view",
      "type": "function"
    }
  ],
  "transactionHash": "0x53696e33525372bae5ee829ff4cc79238ea1509241e6788505108014e37624d1",
  "args": [
    "FROG WARS",
    "PAGE",
    18,
    404,
    "0x80Cbc1f7fd60B7026C0088e5eD58Fc6Ce1180141",
    "0x143f8cFB7e91b7836D90A06Fe0e2cF8728D61FB0"
  ],
  "numDeployments": 1,
  "solcInputHash": "5c0fcd2908987148890d33be0566bbef",
  "bytecode": "0x6101006040523480156200001257600080fd5b5060405162005f3f38038062005f3f83398181016040528101906200003891906200111a565b85858584600073ffffffffffffffffffffffffffffffffffffffff168173ffffffffffffffffffffffffffffffffffffffff1603620000b15760006040517f1e4fbdf7000000000000000000000000000000000000000000000000000000008152600401620000a8919062001205565b60405180910390fd5b620000c281620001b060201b60201c565b508260039081620000d4919062001463565b508160049081620000e6919062001463565b5060128160ff16101562000126576040517f98790fd500000000000000000000000000000000000000000000000000000000815260040160405180910390fd5b8060ff1660808160ff1681525050608051600a620001459190620016cd565b60a081815250504660c08181525050620001646200027460201b60201c565b60e08181525050505050620001818160016200030460201b60201c565b620001a48160a051856200019691906200171e565b6001620003b860201b60201c565b50505050505062001a5f565b60008060009054906101000a900473ffffffffffffffffffffffffffffffffffffffff169050816000806101000a81548173ffffffffffffffffffffffffffffffffffffffff021916908373ffffffffffffffffffffffffffffffffffffffff1602179055508173ffffffffffffffffffffffffffffffffffffffff168173ffffffffffffffffffffffffffffffffffffffff167f8be0079c531659141344cd1fd0a4f28419497f9722a3daafe3b4186f6b6457e060405160405180910390a35050565b60007f8b73c3c69bb8fe3d512ecc4cf759cc79239f7b179b0ffacaa9a75d522b39400f6003604051620002a8919062001818565b60405180910390207fc89efdaa54c0f20c7adf612882df0950f5a951637e0307cdcb4c672f298b8bc64630604051602001620002e99594939291906200185d565b60405160208183030381529060405280519060200120905090565b60a05162000318836200048960201b60201c565b1015801562000325575080155b156200035d576040517f787b1a4a00000000000000000000000000000000000000000000000000000000815260040160405180910390fd5b80600d60008473ffffffffffffffffffffffffffffffffffffffff1673ffffffffffffffffffffffffffffffffffffffff16815260200190815260200160002060006101000a81548160ff0219169083151502179055505050565b600073ffffffffffffffffffffffffffffffffffffffff168373ffffffffffffffffffffffffffffffffffffffff16036200041f576040517f9c8d2cd200000000000000000000000000000000000000000000000000000000815260040160405180910390fd5b6200043360008484620004d260201b60201c565b80156200048457600060a051836200044c9190620018e9565b905060005b8181101562000481576200046b856200063a60201b60201c565b8080620004789062001921565b91505062000451565b50505b505050565b6000600760008373ffffffffffffffffffffffffffffffffffffffff1673ffffffffffffffffffffffffffffffffffffffff168152602001908152602001600020549050919050565b600073ffffffffffffffffffffffffffffffffffffffff168373ffffffffffffffffffffffffffffffffffffffff1603620005285780600560008282546200051b91906200196e565b9250508190555062000581565b80600760008573ffffffffffffffffffffffffffffffffffffffff1673ffffffffffffffffffffffffffffffffffffffff1681526020019081526020016000206000828254620005799190620019a9565b925050819055505b80600760008473ffffffffffffffffffffffffffffffffffffffff1673ffffffffffffffffffffffffffffffffffffffff168152602001908152602001600020600082825401925050819055508173ffffffffffffffffffffffffffffffffffffffff168373ffffffffffffffffffffffffffffffffffffffff167fe59fdd36d0d223c0c7d996db7ad796880f45e1936cb0bb7ac102e7082e031487836040516200062d9190620019e4565b60405180910390a3505050565b600073ffffffffffffffffffffffffffffffffffffffff168173ffffffffffffffffffffffffffffffffffffffff1603620006a1576040517f9c8d2cd200000000000000000000000000000000000000000000000000000000815260040160405180910390fd5b6000620006b560016200078860201b60201c565b620006d457620006cc6001620007f860201b60201c565b9050620006f4565b60066000815480929190620006e99062001921565b919050555060065490505b600062000707826200095d60201b60201c565b9050600073ffffffffffffffffffffffffffffffffffffffff168173ffffffffffffffffffffffffffffffffffffffff161462000770576040517f23369fa600000000000000000000000000000000000000000000000000000000815260040160405180910390fd5b620007838184846200099560201b60201c565b505050565b60008160000160009054906101000a90046fffffffffffffffffffffffffffffffff166fffffffffffffffffffffffffffffffff168260000160109054906101000a90046fffffffffffffffffffffffffffffffff166fffffffffffffffffffffffffffffffff16149050919050565b6000808260000160109054906101000a90046fffffffffffffffffffffffffffffffff1690508260000160009054906101000a90046fffffffffffffffffffffffffffffffff166fffffffffffffffffffffffffffffffff16816fffffffffffffffffffffffffffffffff16036200089c576040517f75e52f4f00000000000000000000000000000000000000000000000000000000815260040160405180910390fd5b80600190039050826001016000826fffffffffffffffffffffffffffffffff166fffffffffffffffffffffffffffffffff168152602001908152602001600020549150826001016000826fffffffffffffffffffffffffffffffff166fffffffffffffffffffffffffffffffff16815260200190815260200160002060009055808360000160106101000a8154816fffffffffffffffffffffffffffffffff02191690836fffffffffffffffffffffffffffffffff16021790555050919050565b600080600b600084815260200190815260200160002054905073ffffffffffffffffffffffffffffffffffffffff8116915050919050565b600073ffffffffffffffffffffffffffffffffffffffff168373ffffffffffffffffffffffffffffffffffffffff161462000bb1576009600082815260200190815260200160002060006101000a81549073ffffffffffffffffffffffffffffffffffffffff02191690556000600c60008573ffffffffffffffffffffffffffffffffffffffff1673ffffffffffffffffffffffffffffffffffffffff1681526020019081526020016000206001600c60008773ffffffffffffffffffffffffffffffffffffffff1673ffffffffffffffffffffffffffffffffffffffff1681526020019081526020016000208054905062000a929190620019a9565b8154811062000aa65762000aa562001a01565b5b9060005260206000200154905081811462000b4757600062000ace8362000d3e60201b60201c565b905081600c60008773ffffffffffffffffffffffffffffffffffffffff1673ffffffffffffffffffffffffffffffffffffffff168152602001908152602001600020828154811062000b255762000b2462001a01565b5b906000526020600020018190555062000b45828262000d6360201b60201c565b505b600c60008573ffffffffffffffffffffffffffffffffffffffff1673ffffffffffffffffffffffffffffffffffffffff16815260200190815260200160002080548062000b995762000b9862001a30565b5b60019003818190600052602060002001600090559055505b600073ffffffffffffffffffffffffffffffffffffffff168273ffffffffffffffffffffffffffffffffffffffff161462000cc65762000bf8818362000e3760201b60201c565b600c60008373ffffffffffffffffffffffffffffffffffffffff1673ffffffffffffffffffffffffffffffffffffffff16815260200190815260200160002081908060018154018082558091505060019003906000526020600020016000909190919091505562000cc0816001600c60008673ffffffffffffffffffffffffffffffffffffffff1673ffffffffffffffffffffffffffffffffffffffff1681526020019081526020016000208054905062000cb49190620019a9565b62000d6360201b60201c565b62000cde565b600b6000828152602001908152602001600020600090555b808273ffffffffffffffffffffffffffffffffffffffff168473ffffffffffffffffffffffffffffffffffffffff167fe5f815dc84b8cecdfd4beedfc3f91ab5be7af100eca4e8fb11552b867995394f60405160405180910390a4505050565b600080600b60008481526020019081526020016000205490508060a01c915050919050565b6000600b600084815260200190815260200160002054905060a07fffffffffffffffffffffffff0000000000000000000000000000000000000000901c82111562000dda576040517ffcb3438c00000000000000000000000000000000000000000000000000000000815260040160405180910390fd5b7fffffffffffffffffffffffff00000000000000000000000000000000000000008260a01b1673ffffffffffffffffffffffffffffffffffffffff821601905080600b600085815260200190815260200160002081905550505050565b6000600b600084815260200190815260200160002054905073ffffffffffffffffffffffffffffffffffffffff82167fffffffffffffffffffffffff0000000000000000000000000000000000000000821601905080600b600085815260200190815260200160002081905550505050565b6000604051905090565b600080fd5b600080fd5b600080fd5b600080fd5b6000601f19601f8301169050919050565b7f4e487b7100000000000000000000000000000000000000000000000000000000600052604160045260246000fd5b62000f128262000ec7565b810181811067ffffffffffffffff8211171562000f345762000f3362000ed8565b5b80604052505050565b600062000f4962000ea9565b905062000f57828262000f07565b919050565b600067ffffffffffffffff82111562000f7a5762000f7962000ed8565b5b62000f858262000ec7565b9050602081019050919050565b60005b8381101562000fb257808201518184015260208101905062000f95565b60008484015250505050565b600062000fd562000fcf8462000f5c565b62000f3d565b90508281526020810184848401111562000ff45762000ff362000ec2565b5b6200100184828562000f92565b509392505050565b600082601f83011262001021576200102062000ebd565b5b81516200103384826020860162000fbe565b91505092915050565b600060ff82169050919050565b62001054816200103c565b81146200106057600080fd5b50565b600081519050620010748162001049565b92915050565b6000819050919050565b6200108f816200107a565b81146200109b57600080fd5b50565b600081519050620010af8162001084565b92915050565b600073ffffffffffffffffffffffffffffffffffffffff82169050919050565b6000620010e282620010b5565b9050919050565b620010f481620010d5565b81146200110057600080fd5b50565b6000815190506200111481620010e9565b92915050565b60008060008060008060c087890312156200113a576200113962000eb3565b5b600087015167ffffffffffffffff8111156200115b576200115a62000eb8565b5b6200116989828a0162001009565b965050602087015167ffffffffffffffff8111156200118d576200118c62000eb8565b5b6200119b89828a0162001009565b9550506040620011ae89828a0162001063565b9450506060620011c189828a016200109e565b9350506080620011d489828a0162001103565b92505060a0620011e789828a0162001103565b9150509295509295509295565b620011ff81620010d5565b82525050565b60006020820190506200121c6000830184620011f4565b92915050565b600081519050919050565b7f4e487b7100000000000000000000000000000000000000000000000000000000600052602260045260246000fd5b600060028204905060018216806200127557607f821691505b6020821081036200128b576200128a6200122d565b5b50919050565b60008190508160005260206000209050919050565b60006020601f8301049050919050565b600082821b905092915050565b600060088302620012f57fffffffffffffffffffffffffffffffffffffffffffffffffffffffffffffffff82620012b6565b620013018683620012b6565b95508019841693508086168417925050509392505050565b6000819050919050565b6000620013446200133e62001338846200107a565b62001319565b6200107a565b9050919050565b6000819050919050565b620013608362001323565b620013786200136f826200134b565b848454620012c3565b825550505050565b600090565b6200138f62001380565b6200139c81848462001355565b505050565b5b81811015620013c457620013b860008262001385565b600181019050620013a2565b5050565b601f8211156200141357620013dd8162001291565b620013e884620012a6565b81016020851015620013f8578190505b620014106200140785620012a6565b830182620013a1565b50505b505050565b600082821c905092915050565b6000620014386000198460080262001418565b1980831691505092915050565b600062001453838362001425565b9150826002028217905092915050565b6200146e8262001222565b67ffffffffffffffff8111156200148a576200148962000ed8565b5b6200149682546200125c565b620014a3828285620013c8565b600060209050601f831160018114620014db5760008415620014c6578287015190505b620014d2858262001445565b86555062001542565b601f198416620014eb8662001291565b60005b828110156200151557848901518255600182019150602085019450602081019050620014ee565b8683101562001535578489015162001531601f89168262001425565b8355505b6001600288020188555050505b505050505050565b7f4e487b7100000000000000000000000000000000000000000000000000000000600052601160045260246000fd5b60008160011c9050919050565b6000808291508390505b6001851115620015d857808604811115620015b057620015af6200154a565b5b6001851615620015c05780820291505b8081029050620015d08562001579565b945062001590565b94509492505050565b600082620015f35760019050620016c6565b81620016035760009050620016c6565b81600181146200161c576002811462001627576200165d565b6001915050620016c6565b60ff8411156200163c576200163b6200154a565b5b8360020a9150848211156200165657620016556200154a565b5b50620016c6565b5060208310610133831016604e8410600b8410161715620016975782820a9050838111156200169157620016906200154a565b5b620016c6565b620016a6848484600162001586565b92509050818404811115620016c057620016bf6200154a565b5b81810290505b9392505050565b6000620016da826200107a565b9150620016e7836200103c565b9250620017167fffffffffffffffffffffffffffffffffffffffffffffffffffffffffffffffff8484620015e1565b905092915050565b60006200172b826200107a565b915062001738836200107a565b925082820262001748816200107a565b915082820484148315176200176257620017616200154a565b5b5092915050565b600081905092915050565b60008190508160005260206000209050919050565b6000815462001798816200125c565b620017a4818662001769565b94506001821660008114620017c25760018114620017d8576200180f565b60ff19831686528115158202860193506200180f565b620017e38562001774565b60005b838110156200180757815481890152600182019150602081019050620017e6565b838801955050505b50505092915050565b600062001826828462001789565b915081905092915050565b6000819050919050565b620018468162001831565b82525050565b62001857816200107a565b82525050565b600060a0820190506200187460008301886200183b565b6200188360208301876200183b565b6200189260408301866200183b565b620018a160608301856200184c565b620018b06080830184620011f4565b9695505050505050565b7f4e487b7100000000000000000000000000000000000000000000000000000000600052601260045260246000fd5b6000620018f6826200107a565b915062001903836200107a565b925082620019165762001915620018ba565b5b828204905092915050565b60006200192e826200107a565b91507fffffffffffffffffffffffffffffffffffffffffffffffffffffffffffffffff82036200196357620019626200154a565b5b600182019050919050565b60006200197b826200107a565b915062001988836200107a565b9250828201905080821115620019a357620019a26200154a565b5b92915050565b6000620019b6826200107a565b9150620019c3836200107a565b9250828203905081811115620019de57620019dd6200154a565b5b92915050565b6000602082019050620019fb60008301846200184c565b92915050565b7f4e487b7100000000000000000000000000000000000000000000000000000000600052603260045260246000fd5b7f4e487b7100000000000000000000000000000000000000000000000000000000600052603160045260246000fd5b60805160a05160c05160e05161445262001aed6000396000611119015260006110e5015260008181610f340152818161141f015281816123430152818161236f0152818161241c01528181612487015281816124ef015281816125fe0152818161262c015281816126580152818161269f015281816126cb0152612839015260006110bf01526144526000f3fe608060405234801561001057600080fd5b50600436106102065760003560e01c806389fb4c661161011a578063b1ab9317116100ad578063c87b56dd1161007c578063c87b56dd1461062b578063d505accf1461065b578063dd62ed3e14610677578063e985e9c5146106a7578063f2fde38b146106d757610206565b8063b1ab931714610591578063b3f9ea34146105c1578063b88d4fde146105f1578063c5ab3ba61461060d57610206565b80639b19251a116100e95780639b19251a146104f9578063a0bcfc7f14610529578063a22cb46514610545578063a9059cbb1461056157610206565b806389fb4c66146104815780638da5cb5b1461049f57806395d89b41146104bd578063976a8435146104db57610206565b806323b872dd1161019d57806353d6fd591161016c57806353d6fd59146103cb5780636352211e146103e757806370a0823114610417578063715018a6146104475780637ecebe001461045157610206565b806323b872dd14610343578063313ce567146103735780633644e5151461039157806342842e0e146103af57610206565b8063095ea7b3116101d9578063095ea7b3146102b957806309d890d5146102e957806315702c4e1461030757806318160ddd1461032557610206565b806301ffc9a71461020b57806302519da31461023b57806306fdde031461026b578063081812fc14610289575b600080fd5b6102256004803603810190610220919061330f565b6106f3565b6040516102329190613357565b60405180910390f35b610255600480360381019061025091906133d0565b6107c5565b6040516102629190613416565b60405180910390f35b61027361080e565b60405161028091906134c1565b60405180910390f35b6102a3600480360381019061029e919061350f565b61089c565b6040516102b0919061354b565b60405180910390f35b6102d360048036038101906102ce9190613566565b6108cf565b6040516102e09190613357565b60405180910390f35b6102f1610bdb565b6040516102fe9190613416565b60405180910390f35b61030f610bec565b60405161031c91906134c1565b60405180910390f35b61032d610c7a565b60405161033a9190613416565b60405180910390f35b61035d600480360381019061035891906135a6565b610c80565b60405161036a9190613357565b60405180910390f35b61037b6110bd565b6040516103889190613615565b60405180910390f35b6103996110e1565b6040516103a69190613649565b60405180910390f35b6103c960048036038101906103c491906135a6565b61113e565b005b6103e560048036038101906103e09190613690565b611272565b005b61040160048036038101906103fc919061350f565b611288565b60405161040e919061354b565b60405180910390f35b610431600480360381019061042c91906133d0565b611318565b60405161043e9190613416565b60405180910390f35b61044f611330565b005b61046b600480360381019061046691906133d0565b611344565b6040516104789190613416565b60405180910390f35b61048961135c565b6040516104969190613416565b60405180910390f35b6104a7611366565b6040516104b4919061354b565b60405180910390f35b6104c561138f565b6040516104d291906134c1565b60405180910390f35b6104e361141d565b6040516104f09190613416565b60405180910390f35b610513600480360381019061050e91906133d0565b611441565b6040516105209190613357565b60405180910390f35b610543600480360381019061053e9190613735565b611461565b005b61055f600480360381019061055a9190613690565b611477565b005b61057b60048036038101906105769190613566565b6115da565b6040516105889190613357565b60405180910390f35b6105ab60048036038101906105a691906133d0565b611654565b6040516105b89190613840565b60405180910390f35b6105db60048036038101906105d691906133d0565b6116eb565b6040516105e89190613416565b60405180910390f35b61060b600480360381019061060691906138b8565b611737565b005b610615611871565b6040516106229190613416565b60405180910390f35b6106456004803603810190610640919061350f565b61187b565b60405161065291906134c1565b60405180910390f35b61067560048036038101906106709190613998565b6118af565b005b610691600480360381019061068c9190613a3a565b611c1b565b60405161069e9190613416565b60405180910390f35b6106c160048036038101906106bc9190613a3a565b611c40565b6040516106ce9190613357565b60405180910390f35b6106f160048036038101906106ec91906133d0565b611c6f565b005b60007fb374afc4000000000000000000000000000000000000000000000000000000007bffffffffffffffffffffffffffffffffffffffffffffffffffffffff1916827bffffffffffffffffffffffffffffffffffffffffffffffffffffffff191614806107be57507f01ffc9a7000000000000000000000000000000000000000000000000000000007bffffffffffffffffffffffffffffffffffffffffffffffffffffffff1916827bffffffffffffffffffffffffffffffffffffffffffffffffffffffff1916145b9050919050565b6000600760008373ffffffffffffffffffffffffffffffffffffffff1673ffffffffffffffffffffffffffffffffffffffff168152602001908152602001600020549050919050565b6003805461081b90613aa9565b80601f016020809104026020016040519081016040528092919081815260200182805461084790613aa9565b80156108945780601f1061086957610100808354040283529160200191610894565b820191906000526020600020905b81548152906001019060200180831161087757829003601f168201915b505050505081565b60096020528060005260406000206000915054906101000a900473ffffffffffffffffffffffffffffffffffffffff1681565b600060065482111580156108e35750600082115b15610aa857600082905060006108f882611cf5565b90508073ffffffffffffffffffffffffffffffffffffffff163373ffffffffffffffffffffffffffffffffffffffff16141580156109bd5750600a60008273ffffffffffffffffffffffffffffffffffffffff1673ffffffffffffffffffffffffffffffffffffffff16815260200190815260200160002060003373ffffffffffffffffffffffffffffffffffffffff1673ffffffffffffffffffffffffffffffffffffffff16815260200190815260200160002060009054906101000a900460ff16155b156109f4576040517f82b4290000000000000000000000000000000000000000000000000000000000815260040160405180910390fd5b846009600084815260200190815260200160002060006101000a81548173ffffffffffffffffffffffffffffffffffffffff021916908373ffffffffffffffffffffffffffffffffffffffff160217905550818573ffffffffffffffffffffffffffffffffffffffff168273ffffffffffffffffffffffffffffffffffffffff167f797365dabb18fa726ccbccbe18c6f24c34e3b0653f2e99ea873bd7b84763dde660405160405180910390a45050610bd1565b600073ffffffffffffffffffffffffffffffffffffffff168373ffffffffffffffffffffffffffffffffffffffff1603610b0e576040517f5461585f00000000000000000000000000000000000000000000000000000000815260040160405180910390fd5b600082905080600860003373ffffffffffffffffffffffffffffffffffffffff1673ffffffffffffffffffffffffffffffffffffffff16815260200190815260200160002060008673ffffffffffffffffffffffffffffffffffffffff1673ffffffffffffffffffffffffffffffffffffffff168152602001908152602001600020819055507f1f01303a1ce9329d9963e1937c201e23c5543a9e3536e9edead087aec7dc6d83338583604051610bc793929190613ada565b60405180910390a1505b6001905092915050565b6000610be76001611d2d565b905090565b600f8054610bf990613aa9565b80601f0160208091040260200160405190810160405280929190818152602001828054610c2590613aa9565b8015610c725780601f10610c4757610100808354040283529160200191610c72565b820191906000526020600020905b815481529060010190602001808311610c5557829003601f168201915b505050505081565b60055481565b60008073ffffffffffffffffffffffffffffffffffffffff168473ffffffffffffffffffffffffffffffffffffffff1603610ce7576040517fddb5de5e00000000000000000000000000000000000000000000000000000000815260040160405180910390fd5b600073ffffffffffffffffffffffffffffffffffffffff168373ffffffffffffffffffffffffffffffffffffffff1603610d4d576040517f9c8d2cd200000000000000000000000000000000000000000000000000000000815260040160405180910390fd5b6006548211610f69576000829050610d6481611cf5565b73ffffffffffffffffffffffffffffffffffffffff168573ffffffffffffffffffffffffffffffffffffffff1614610dc8576040517f82b4290000000000000000000000000000000000000000000000000000000000815260040160405180910390fd5b8473ffffffffffffffffffffffffffffffffffffffff163373ffffffffffffffffffffffffffffffffffffffff1614158015610e8b5750600a60008673ffffffffffffffffffffffffffffffffffffffff1673ffffffffffffffffffffffffffffffffffffffff16815260200190815260200160002060003373ffffffffffffffffffffffffffffffffffffffff1673ffffffffffffffffffffffffffffffffffffffff16815260200190815260200160002060009054906101000a900460ff16155b8015610ef657506009600082815260200190815260200160002060009054906101000a900473ffffffffffffffffffffffffffffffffffffffff1673ffffffffffffffffffffffffffffffffffffffff163373ffffffffffffffffffffffffffffffffffffffff1614155b15610f2d576040517f82b4290000000000000000000000000000000000000000000000000000000000815260040160405180910390fd5b610f5885857f0000000000000000000000000000000000000000000000000000000000000000611d8b565b610f63858583611eeb565b506110b2565b60008290506000600860008773ffffffffffffffffffffffffffffffffffffffff1673ffffffffffffffffffffffffffffffffffffffff16815260200190815260200160002060003373ffffffffffffffffffffffffffffffffffffffff1673ffffffffffffffffffffffffffffffffffffffff1681526020019081526020016000205490507fffffffffffffffffffffffffffffffffffffffffffffffffffffffffffffffff81146110a35781816110229190613b40565b600860008873ffffffffffffffffffffffffffffffffffffffff1673ffffffffffffffffffffffffffffffffffffffff16815260200190815260200160002060003373ffffffffffffffffffffffffffffffffffffffff1673ffffffffffffffffffffffffffffffffffffffff168152602001908152602001600020819055505b6110ae868684612263565b5050505b600190509392505050565b7f000000000000000000000000000000000000000000000000000000000000000081565b60007f0000000000000000000000000000000000000000000000000000000000000000461461111757611112612724565b611139565b7f00000000000000000000000000000000000000000000000000000000000000005b905090565b611149838383610c80565b5060008273ffffffffffffffffffffffffffffffffffffffff163b14158015611236575063150b7a0260e01b7bffffffffffffffffffffffffffffffffffffffffffffffffffffffff19168273ffffffffffffffffffffffffffffffffffffffff1663150b7a023386856040518463ffffffff1660e01b81526004016111d193929190613bab565b6020604051808303816000875af11580156111f0573d6000803e3d6000fd5b505050506040513d601f19601f820116820180604052508101906112149190613c0a565b7bffffffffffffffffffffffffffffffffffffffffffffffffffffffff191614155b1561126d576040517f3da6393100000000000000000000000000000000000000000000000000000000815260040160405180910390fd5b505050565b61127a6127b0565b6112848282612837565b5050565b600061129382611cf5565b90506006548211806112a55750600082145b806112dc5750600073ffffffffffffffffffffffffffffffffffffffff168173ffffffffffffffffffffffffffffffffffffffff16145b15611313576040517fc5723b5100000000000000000000000000000000000000000000000000000000815260040160405180910390fd5b919050565b60076020528060005260406000206000915090505481565b6113386127b0565b61134260006128ff565b565b600e6020528060005260406000206000915090505481565b6000600554905090565b60008060009054906101000a900473ffffffffffffffffffffffffffffffffffffffff16905090565b6004805461139c90613aa9565b80601f01602080910402602001604051908101604052809291908181526020018280546113c890613aa9565b80156114155780601f106113ea57610100808354040283529160200191611415565b820191906000526020600020905b8154815290600101906020018083116113f857829003601f168201915b505050505081565b7f000000000000000000000000000000000000000000000000000000000000000081565b600d6020528060005260406000206000915054906101000a900460ff1681565b8181600f9182611472929190613e1d565b505050565b600073ffffffffffffffffffffffffffffffffffffffff168273ffffffffffffffffffffffffffffffffffffffff16036114dd576040517fccea9e6f00000000000000000000000000000000000000000000000000000000815260040160405180910390fd5b80600a60003373ffffffffffffffffffffffffffffffffffffffff1673ffffffffffffffffffffffffffffffffffffffff16815260200190815260200160002060008473ffffffffffffffffffffffffffffffffffffffff1673ffffffffffffffffffffffffffffffffffffffff16815260200190815260200160002060006101000a81548160ff0219169083151502179055508173ffffffffffffffffffffffffffffffffffffffff163373ffffffffffffffffffffffffffffffffffffffff167f17307eab39ab6107e8899845ad3d59bd9653f200f220920489ca2b5937696c31836040516115ce9190613357565b60405180910390a35050565b60008073ffffffffffffffffffffffffffffffffffffffff168373ffffffffffffffffffffffffffffffffffffffff1603611641576040517f9c8d2cd200000000000000000000000000000000000000000000000000000000815260040160405180910390fd5b61164c338484612263565b905092915050565b6060600c60008373ffffffffffffffffffffffffffffffffffffffff1673ffffffffffffffffffffffffffffffffffffffff1681526020019081526020016000208054806020026020016040519081016040528092919081815260200182805480156116df57602002820191906000526020600020905b8154815260200190600101908083116116cb575b50505050509050919050565b6000600c60008373ffffffffffffffffffffffffffffffffffffffff1673ffffffffffffffffffffffffffffffffffffffff168152602001908152602001600020805490509050919050565b611742858585610c80565b5060008473ffffffffffffffffffffffffffffffffffffffff163b14158015611833575063150b7a0260e01b7bffffffffffffffffffffffffffffffffffffffffffffffffffffffff19168473ffffffffffffffffffffffffffffffffffffffff1663150b7a0233888787876040518663ffffffff1660e01b81526004016117ce959493929190613f29565b6020604051808303816000875af11580156117ed573d6000803e3d6000fd5b505050506040513d601f19601f820116820180604052508101906118119190613c0a565b7bffffffffffffffffffffffffffffffffffffffffffffffffffffffff191614155b1561186a576040517f3da6393100000000000000000000000000000000000000000000000000000000815260040160405180910390fd5b5050505050565b6000600654905090565b6060600f611888836129c3565b604051602001611899929190614036565b6040516020818303038152906040529050919050565b428410156118e9576040517f05787bdf00000000000000000000000000000000000000000000000000000000815260040160405180910390fd5b60065485111580156118fb5750600085115b15611932576040517f1f3e0de800000000000000000000000000000000000000000000000000000000815260040160405180910390fd5b600073ffffffffffffffffffffffffffffffffffffffff168673ffffffffffffffffffffffffffffffffffffffff1603611998576040517f5461585f00000000000000000000000000000000000000000000000000000000815260040160405180910390fd5b600060016119a46110e1565b7f6e71edae12b1b97f4d1f60370fef10105fa2faae0126114a169c64845d6126c98a8a8a600e60008f73ffffffffffffffffffffffffffffffffffffffff1673ffffffffffffffffffffffffffffffffffffffff1681526020019081526020016000206000815480929190600101919050558b604051602001611a2c9695949392919061405a565b60405160208183030381529060405280519060200120604051602001611a53929190614128565b6040516020818303038152906040528051906020012085858560405160008152602001604052604051611a89949392919061415f565b6020604051602081039080840390855afa158015611aab573d6000803e3d6000fd5b505050602060405103519050600073ffffffffffffffffffffffffffffffffffffffff168173ffffffffffffffffffffffffffffffffffffffff161480611b1e57508773ffffffffffffffffffffffffffffffffffffffff168173ffffffffffffffffffffffffffffffffffffffff1614155b15611b55576040517f815e1d6400000000000000000000000000000000000000000000000000000000815260040160405180910390fd5b85600860008373ffffffffffffffffffffffffffffffffffffffff1673ffffffffffffffffffffffffffffffffffffffff16815260200190815260200160002060008973ffffffffffffffffffffffffffffffffffffffff1673ffffffffffffffffffffffffffffffffffffffff16815260200190815260200160002081905550507f1f01303a1ce9329d9963e1937c201e23c5543a9e3536e9edead087aec7dc6d83878787604051611c0a93929190613ada565b60405180910390a150505050505050565b6008602052816000526040600020602052806000526040600020600091509150505481565b600a6020528160005260406000206020528060005260406000206000915091509054906101000a900460ff1681565b611c776127b0565b600073ffffffffffffffffffffffffffffffffffffffff168173ffffffffffffffffffffffffffffffffffffffff1603611ce95760006040517f1e4fbdf7000000000000000000000000000000000000000000000000000000008152600401611ce0919061354b565b60405180910390fd5b611cf2816128ff565b50565b600080600b600084815260200190815260200160002054905073ffffffffffffffffffffffffffffffffffffffff8116915050919050565b60008160000160009054906101000a90046fffffffffffffffffffffffffffffffff168260000160109054906101000a90046fffffffffffffffffffffffffffffffff16036fffffffffffffffffffffffffffffffff169050919050565b600073ffffffffffffffffffffffffffffffffffffffff168373ffffffffffffffffffffffffffffffffffffffff1603611ddd578060056000828254611dd191906141a4565b92505081905550611e34565b80600760008573ffffffffffffffffffffffffffffffffffffffff1673ffffffffffffffffffffffffffffffffffffffff1681526020019081526020016000206000828254611e2c9190613b40565b925050819055505b80600760008473ffffffffffffffffffffffffffffffffffffffff1673ffffffffffffffffffffffffffffffffffffffff168152602001908152602001600020600082825401925050819055508173ffffffffffffffffffffffffffffffffffffffff168373ffffffffffffffffffffffffffffffffffffffff167fe59fdd36d0d223c0c7d996db7ad796880f45e1936cb0bb7ac102e7082e03148783604051611ede9190613416565b60405180910390a3505050565b600073ffffffffffffffffffffffffffffffffffffffff168373ffffffffffffffffffffffffffffffffffffffff16146120ea576009600082815260200190815260200160002060006101000a81549073ffffffffffffffffffffffffffffffffffffffff02191690556000600c60008573ffffffffffffffffffffffffffffffffffffffff1673ffffffffffffffffffffffffffffffffffffffff1681526020019081526020016000206001600c60008773ffffffffffffffffffffffffffffffffffffffff1673ffffffffffffffffffffffffffffffffffffffff16815260200190815260200160002080549050611fe59190613b40565b81548110611ff657611ff56141d8565b5b9060005260206000200154905081811461208357600061201583612a91565b905081600c60008773ffffffffffffffffffffffffffffffffffffffff1673ffffffffffffffffffffffffffffffffffffffff1681526020019081526020016000208281548110612069576120686141d8565b5b90600052602060002001819055506120818282612ab6565b505b600c60008573ffffffffffffffffffffffffffffffffffffffff1673ffffffffffffffffffffffffffffffffffffffff1681526020019081526020016000208054806120d2576120d1614207565b5b60019003818190600052602060002001600090559055505b600073ffffffffffffffffffffffffffffffffffffffff168273ffffffffffffffffffffffffffffffffffffffff16146121eb576121288183612b89565b600c60008373ffffffffffffffffffffffffffffffffffffffff1673ffffffffffffffffffffffffffffffffffffffff1681526020019081526020016000208190806001815401808255809150506001900390600052602060002001600090919091909150556121e6816001600c60008673ffffffffffffffffffffffffffffffffffffffff1673ffffffffffffffffffffffffffffffffffffffff168152602001908152602001600020805490506121e19190613b40565b612ab6565b612203565b600b6000828152602001908152602001600020600090555b808273ffffffffffffffffffffffffffffffffffffffff168473ffffffffffffffffffffffffffffffffffffffff167fe5f815dc84b8cecdfd4beedfc3f91ab5be7af100eca4e8fb11552b867995394f60405160405180910390a4505050565b60008061226f856107c5565b9050600061227c856107c5565b9050612289868686611d8b565b6000600d60008873ffffffffffffffffffffffffffffffffffffffff1673ffffffffffffffffffffffffffffffffffffffff16815260200190815260200160002060009054906101000a900460ff1690506000600d60008873ffffffffffffffffffffffffffffffffffffffff1673ffffffffffffffffffffffffffffffffffffffff16815260200190815260200160002060009054906101000a900460ff1690508180156123355750805b6127155781156124125760007f00000000000000000000000000000000000000000000000000000000000000008461236d9190614265565b7f0000000000000000000000000000000000000000000000000000000000000000600760008b73ffffffffffffffffffffffffffffffffffffffff1673ffffffffffffffffffffffffffffffffffffffff168152602001908152602001600020546123d89190614265565b6123e29190613b40565b905060005b8181101561240b576123f889612bfb565b808061240390614296565b9150506123e7565b5050612714565b80156124eb5760007f0000000000000000000000000000000000000000000000000000000000000000600760008b73ffffffffffffffffffffffffffffffffffffffff1673ffffffffffffffffffffffffffffffffffffffff168152602001908152602001600020546124859190614265565b7f0000000000000000000000000000000000000000000000000000000000000000866124b19190614265565b6124bb9190613b40565b905060005b818110156124e4576124d18a612d23565b80806124dc90614296565b9150506124c0565b5050612713565b60007f0000000000000000000000000000000000000000000000000000000000000000876125199190614265565b905060005b818110156125f95760006001600c60008d73ffffffffffffffffffffffffffffffffffffffff1673ffffffffffffffffffffffffffffffffffffffff168152602001908152602001600020805490506125779190613b40565b90506000600c60008d73ffffffffffffffffffffffffffffffffffffffff1673ffffffffffffffffffffffffffffffffffffffff16815260200190815260200160002082815481106125cc576125cb6141d8565b5b906000526020600020015490506125e48c8c83611eeb565b505080806125f190614296565b91505061251e565b5060007f00000000000000000000000000000000000000000000000000000000000000008861262891906142de565b90507f0000000000000000000000000000000000000000000000000000000000000000866126569190614265565b7f000000000000000000000000000000000000000000000000000000000000000082886126839190613b40565b61268d9190614265565b101561269d5761269c8a612d23565b5b7f0000000000000000000000000000000000000000000000000000000000000000856126c99190614265565b7f000000000000000000000000000000000000000000000000000000000000000082876126f691906141a4565b6127009190614265565b11156127105761270f89612bfb565b5b50505b5b5b60019450505050509392505050565b60007f8b73c3c69bb8fe3d512ecc4cf759cc79239f7b179b0ffacaa9a75d522b39400f600360405161275691906143b2565b60405180910390207fc89efdaa54c0f20c7adf612882df0950f5a951637e0307cdcb4c672f298b8bc646306040516020016127959594939291906143c9565b60405160208183030381529060405280519060200120905090565b6127b8612e5b565b73ffffffffffffffffffffffffffffffffffffffff166127d6611366565b73ffffffffffffffffffffffffffffffffffffffff1614612835576127f9612e5b565b6040517f118cdaa700000000000000000000000000000000000000000000000000000000815260040161282c919061354b565b60405180910390fd5b565b7f0000000000000000000000000000000000000000000000000000000000000000612861836107c5565b1015801561286d575080155b156128a4576040517f787b1a4a00000000000000000000000000000000000000000000000000000000815260040160405180910390fd5b80600d60008473ffffffffffffffffffffffffffffffffffffffff1673ffffffffffffffffffffffffffffffffffffffff16815260200190815260200160002060006101000a81548160ff0219169083151502179055505050565b60008060009054906101000a900473ffffffffffffffffffffffffffffffffffffffff169050816000806101000a81548173ffffffffffffffffffffffffffffffffffffffff021916908373ffffffffffffffffffffffffffffffffffffffff1602179055508173ffffffffffffffffffffffffffffffffffffffff168173ffffffffffffffffffffffffffffffffffffffff167f8be0079c531659141344cd1fd0a4f28419497f9722a3daafe3b4186f6b6457e060405160405180910390a35050565b6060600060016129d284612e63565b01905060008167ffffffffffffffff8111156129f1576129f0613c42565b5b6040519080825280601f01601f191660200182016040528015612a235781602001600182028036833780820191505090505b509050600082602001820190505b600115612a86578080600190039150507f3031323334353637383961626364656600000000000000000000000000000000600a86061a8153600a8581612a7a57612a79614236565b5b04945060008503612a31575b819350505050919050565b600080600b60008481526020019081526020016000205490508060a01c915050919050565b6000600b600084815260200190815260200160002054905060a07fffffffffffffffffffffffff0000000000000000000000000000000000000000901c821115612b2c576040517ffcb3438c00000000000000000000000000000000000000000000000000000000815260040160405180910390fd5b7fffffffffffffffffffffffff00000000000000000000000000000000000000008260a01b1673ffffffffffffffffffffffffffffffffffffffff821601905080600b600085815260200190815260200160002081905550505050565b6000600b600084815260200190815260200160002054905073ffffffffffffffffffffffffffffffffffffffff82167fffffffffffffffffffffffff0000000000000000000000000000000000000000821601905080600b600085815260200190815260200160002081905550505050565b600073ffffffffffffffffffffffffffffffffffffffff168173ffffffffffffffffffffffffffffffffffffffff1603612c61576040517f9c8d2cd200000000000000000000000000000000000000000000000000000000815260040160405180910390fd5b6000612c6d6001612fb6565b612c8257612c7b6001613026565b9050612ca0565b60066000815480929190612c9590614296565b919050555060065490505b6000612cab82611cf5565b9050600073ffffffffffffffffffffffffffffffffffffffff168173ffffffffffffffffffffffffffffffffffffffff1614612d13576040517f23369fa600000000000000000000000000000000000000000000000000000000815260040160405180910390fd5b612d1e818484611eeb565b505050565b600073ffffffffffffffffffffffffffffffffffffffff168173ffffffffffffffffffffffffffffffffffffffff1603612d89576040517fddb5de5e00000000000000000000000000000000000000000000000000000000815260040160405180910390fd5b6000600c60008373ffffffffffffffffffffffffffffffffffffffff1673ffffffffffffffffffffffffffffffffffffffff1681526020019081526020016000206001600c60008573ffffffffffffffffffffffffffffffffffffffff1673ffffffffffffffffffffffffffffffffffffffff16815260200190815260200160002080549050612e199190613b40565b81548110612e2a57612e296141d8565b5b90600052602060002001549050612e4382600083611eeb565b612e5781600161318a90919063ffffffff16565b5050565b600033905090565b600080600090507a184f03e93ff9f4daa797ed6e38ed64bf6a1f0100000000000000008310612ec1577a184f03e93ff9f4daa797ed6e38ed64bf6a1f0100000000000000008381612eb757612eb6614236565b5b0492506040810190505b6d04ee2d6d415b85acef81000000008310612efe576d04ee2d6d415b85acef81000000008381612ef457612ef3614236565b5b0492506020810190505b662386f26fc100008310612f2d57662386f26fc100008381612f2357612f22614236565b5b0492506010810190505b6305f5e1008310612f56576305f5e1008381612f4c57612f4b614236565b5b0492506008810190505b6127108310612f7b576127108381612f7157612f70614236565b5b0492506004810190505b60648310612f9e5760648381612f9457612f93614236565b5b0492506002810190505b600a8310612fad576001810190505b80915050919050565b60008160000160009054906101000a90046fffffffffffffffffffffffffffffffff166fffffffffffffffffffffffffffffffff168260000160109054906101000a90046fffffffffffffffffffffffffffffffff166fffffffffffffffffffffffffffffffff16149050919050565b6000808260000160109054906101000a90046fffffffffffffffffffffffffffffffff1690508260000160009054906101000a90046fffffffffffffffffffffffffffffffff166fffffffffffffffffffffffffffffffff16816fffffffffffffffffffffffffffffffff16036130c9576040517f75e52f4f00000000000000000000000000000000000000000000000000000000815260040160405180910390fd5b80600190039050826001016000826fffffffffffffffffffffffffffffffff166fffffffffffffffffffffffffffffffff168152602001908152602001600020549150826001016000826fffffffffffffffffffffffffffffffff166fffffffffffffffffffffffffffffffff16815260200190815260200160002060009055808360000160106101000a8154816fffffffffffffffffffffffffffffffff02191690836fffffffffffffffffffffffffffffffff16021790555050919050565b600060018360000160009054906101000a90046fffffffffffffffffffffffffffffffff160390508260000160109054906101000a90046fffffffffffffffffffffffffffffffff166fffffffffffffffffffffffffffffffff16816fffffffffffffffffffffffffffffffff160361322f576040517f8acb5f2700000000000000000000000000000000000000000000000000000000815260040160405180910390fd5b81836001016000836fffffffffffffffffffffffffffffffff166fffffffffffffffffffffffffffffffff16815260200190815260200160002081905550808360000160006101000a8154816fffffffffffffffffffffffffffffffff02191690836fffffffffffffffffffffffffffffffff160217905550505050565b600080fd5b600080fd5b60007fffffffff0000000000000000000000000000000000000000000000000000000082169050919050565b6132ec816132b7565b81146132f757600080fd5b50565b600081359050613309816132e3565b92915050565b600060208284031215613325576133246132ad565b5b6000613333848285016132fa565b91505092915050565b60008115159050919050565b6133518161333c565b82525050565b600060208201905061336c6000830184613348565b92915050565b600073ffffffffffffffffffffffffffffffffffffffff82169050919050565b600061339d82613372565b9050919050565b6133ad81613392565b81146133b857600080fd5b50565b6000813590506133ca816133a4565b92915050565b6000602082840312156133e6576133e56132ad565b5b60006133f4848285016133bb565b91505092915050565b6000819050919050565b613410816133fd565b82525050565b600060208201905061342b6000830184613407565b92915050565b600081519050919050565b600082825260208201905092915050565b60005b8381101561346b578082015181840152602081019050613450565b60008484015250505050565b6000601f19601f8301169050919050565b600061349382613431565b61349d818561343c565b93506134ad81856020860161344d565b6134b681613477565b840191505092915050565b600060208201905081810360008301526134db8184613488565b905092915050565b6134ec816133fd565b81146134f757600080fd5b50565b600081359050613509816134e3565b92915050565b600060208284031215613525576135246132ad565b5b6000613533848285016134fa565b91505092915050565b61354581613392565b82525050565b6000602082019050613560600083018461353c565b92915050565b6000806040838503121561357d5761357c6132ad565b5b600061358b858286016133bb565b925050602061359c858286016134fa565b9150509250929050565b6000806000606084860312156135bf576135be6132ad565b5b60006135cd868287016133bb565b93505060206135de868287016133bb565b92505060406135ef868287016134fa565b9150509250925092565b600060ff82169050919050565b61360f816135f9565b82525050565b600060208201905061362a6000830184613606565b92915050565b6000819050919050565b61364381613630565b82525050565b600060208201905061365e600083018461363a565b92915050565b61366d8161333c565b811461367857600080fd5b50565b60008135905061368a81613664565b92915050565b600080604083850312156136a7576136a66132ad565b5b60006136b5858286016133bb565b92505060206136c68582860161367b565b9150509250929050565b600080fd5b600080fd5b600080fd5b60008083601f8401126136f5576136f46136d0565b5b8235905067ffffffffffffffff811115613712576137116136d5565b5b60208301915083600182028301111561372e5761372d6136da565b5b9250929050565b6000806020838503121561374c5761374b6132ad565b5b600083013567ffffffffffffffff81111561376a576137696132b2565b5b613776858286016136df565b92509250509250929050565b600081519050919050565b600082825260208201905092915050565b6000819050602082019050919050565b6137b7816133fd565b82525050565b60006137c983836137ae565b60208301905092915050565b6000602082019050919050565b60006137ed82613782565b6137f7818561378d565b93506138028361379e565b8060005b8381101561383357815161381a88826137bd565b9750613825836137d5565b925050600181019050613806565b5085935050505092915050565b6000602082019050818103600083015261385a81846137e2565b905092915050565b60008083601f840112613878576138776136d0565b5b8235905067ffffffffffffffff811115613895576138946136d5565b5b6020830191508360018202830111156138b1576138b06136da565b5b9250929050565b6000806000806000608086880312156138d4576138d36132ad565b5b60006138e2888289016133bb565b95505060206138f3888289016133bb565b9450506040613904888289016134fa565b935050606086013567ffffffffffffffff811115613925576139246132b2565b5b61393188828901613862565b92509250509295509295909350565b613949816135f9565b811461395457600080fd5b50565b60008135905061396681613940565b92915050565b61397581613630565b811461398057600080fd5b50565b6000813590506139928161396c565b92915050565b600080600080600080600060e0888a0312156139b7576139b66132ad565b5b60006139c58a828b016133bb565b97505060206139d68a828b016133bb565b96505060406139e78a828b016134fa565b95505060606139f88a828b016134fa565b9450506080613a098a828b01613957565b93505060a0613a1a8a828b01613983565b92505060c0613a2b8a828b01613983565b91505092959891949750929550565b60008060408385031215613a5157613a506132ad565b5b6000613a5f858286016133bb565b9250506020613a70858286016133bb565b9150509250929050565b7f4e487b7100000000000000000000000000000000000000000000000000000000600052602260045260246000fd5b60006002820490506001821680613ac157607f821691505b602082108103613ad457613ad3613a7a565b5b50919050565b6000606082019050613aef600083018661353c565b613afc602083018561353c565b613b096040830184613407565b949350505050565b7f4e487b7100000000000000000000000000000000000000000000000000000000600052601160045260246000fd5b6000613b4b826133fd565b9150613b56836133fd565b9250828203905081811115613b6e57613b6d613b11565b5b92915050565b600082825260208201905092915050565b50565b6000613b95600083613b74565b9150613ba082613b85565b600082019050919050565b6000608082019050613bc0600083018661353c565b613bcd602083018561353c565b613bda6040830184613407565b8181036060830152613beb81613b88565b9050949350505050565b600081519050613c04816132e3565b92915050565b600060208284031215613c2057613c1f6132ad565b5b6000613c2e84828501613bf5565b91505092915050565b600082905092915050565b7f4e487b7100000000000000000000000000000000000000000000000000000000600052604160045260246000fd5b60008190508160005260206000209050919050565b60006020601f8301049050919050565b600082821b905092915050565b600060088302613cd37fffffffffffffffffffffffffffffffffffffffffffffffffffffffffffffffff82613c96565b613cdd8683613c96565b95508019841693508086168417925050509392505050565b6000819050919050565b6000613d1a613d15613d10846133fd565b613cf5565b6133fd565b9050919050565b6000819050919050565b613d3483613cff565b613d48613d4082613d21565b848454613ca3565b825550505050565b600090565b613d5d613d50565b613d68818484613d2b565b505050565b5b81811015613d8c57613d81600082613d55565b600181019050613d6e565b5050565b601f821115613dd157613da281613c71565b613dab84613c86565b81016020851015613dba578190505b613dce613dc685613c86565b830182613d6d565b50505b505050565b600082821c905092915050565b6000613df460001984600802613dd6565b1980831691505092915050565b6000613e0d8383613de3565b9150826002028217905092915050565b613e278383613c37565b67ffffffffffffffff811115613e4057613e3f613c42565b5b613e4a8254613aa9565b613e55828285613d90565b6000601f831160018114613e845760008415613e72578287013590505b613e7c8582613e01565b865550613ee4565b601f198416613e9286613c71565b60005b82811015613eba57848901358255600182019150602085019450602081019050613e95565b86831015613ed75784890135613ed3601f891682613de3565b8355505b6001600288020188555050505b50505050505050565b82818337600083830152505050565b6000613f088385613b74565b9350613f15838584613eed565b613f1e83613477565b840190509392505050565b6000608082019050613f3e600083018861353c565b613f4b602083018761353c565b613f586040830186613407565b8181036060830152613f6b818486613efc565b90509695505050505050565b600081905092915050565b60008154613f8f81613aa9565b613f998186613f77565b94506001821660008114613fb45760018114613fc957613ffc565b60ff1983168652811515820286019350613ffc565b613fd285613c71565b60005b83811015613ff457815481890152600182019150602081019050613fd5565b838801955050505b50505092915050565b600061401082613431565b61401a8185613f77565b935061402a81856020860161344d565b80840191505092915050565b60006140428285613f82565b915061404e8284614005565b91508190509392505050565b600060c08201905061406f600083018961363a565b61407c602083018861353c565b614089604083018761353c565b6140966060830186613407565b6140a36080830185613407565b6140b060a0830184613407565b979650505050505050565b7f1901000000000000000000000000000000000000000000000000000000000000600082015250565b60006140f1600283613f77565b91506140fc826140bb565b600282019050919050565b6000819050919050565b61412261411d82613630565b614107565b82525050565b6000614133826140e4565b915061413f8285614111565b60208201915061414f8284614111565b6020820191508190509392505050565b6000608082019050614174600083018761363a565b6141816020830186613606565b61418e604083018561363a565b61419b606083018461363a565b95945050505050565b60006141af826133fd565b91506141ba836133fd565b92508282019050808211156141d2576141d1613b11565b5b92915050565b7f4e487b7100000000000000000000000000000000000000000000000000000000600052603260045260246000fd5b7f4e487b7100000000000000000000000000000000000000000000000000000000600052603160045260246000fd5b7f4e487b7100000000000000000000000000000000000000000000000000000000600052601260045260246000fd5b6000614270826133fd565b915061427b836133fd565b92508261428b5761428a614236565b5b828204905092915050565b60006142a1826133fd565b91507fffffffffffffffffffffffffffffffffffffffffffffffffffffffffffffffff82036142d3576142d2613b11565b5b600182019050919050565b60006142e9826133fd565b91506142f4836133fd565b92508261430457614303614236565b5b828206905092915050565b600081905092915050565b60008190508160005260206000209050919050565b6000815461433c81613aa9565b614346818661430f565b945060018216600081146143615760018114614376576143a9565b60ff19831686528115158202860193506143a9565b61437f8561431a565b60005b838110156143a157815481890152600182019150602081019050614382565b838801955050505b50505092915050565b60006143be828461432f565b915081905092915050565b600060a0820190506143de600083018861363a565b6143eb602083018761363a565b6143f8604083018661363a565b6144056060830185613407565b614412608083018461353c565b969550505050505056fea2646970667358221220af9146bf1f746a44ec2132203aad2c431355e7f880ecb60df42354e980e2b84364736f6c63430008140033",
  "devdoc": {
    "errors": {
      "OwnableInvalidOwner(address)": [
        {
          "details": "The owner is not a valid owner account. (eg. `address(0)`)"
        }
      ],
      "OwnableUnauthorizedAccount(address)": [
        {
          "details": "The caller account is not authorized to perform an operation."
        }
      ],
      "QueueEmpty()": [
        {
          "details": "An operation (e.g. {front}) couldn't be completed due to the queue being empty."
        }
      ],
      "QueueFull()": [
        {
          "details": "A push operation couldn't be completed due to the queue being full."
        }
      ]
    },
    "kind": "dev",
    "methods": {
      "approve(address,uint256)": {
        "details": "This function assumes the operator is attempting to approve an ERC-721      if valueOrId is less than the minted count. Note: Unlike setApprovalForAll,      spender_ must be allowed to be 0x0 so that approval can be revoked."
      },
      "owner()": {
        "details": "Returns the address of the current owner."
      },
      "renounceOwnership()": {
        "details": "Leaves the contract without owner. It will not be possible to call `onlyOwner` functions. Can only be called by the current owner. NOTE: Renouncing ownership will leave the contract without an owner, thereby disabling any functionality that is only available to the owner."
      },
      "supportsInterface(bytes4)": {
        "details": "Returns true if this contract implements the interface defined by `interfaceId`. See the corresponding https://eips.ethereum.org/EIPS/eip-165#how-interfaces-are-identified[ERC section] to learn more about how these ids are created. This function call must use less than 30 000 gas."
      },
      "transfer(address,uint256)": {
        "details": "This function assumes the operator is attempting to transfer as ERC-20      given this function is only supported on the ERC-20 interface"
      },
      "transferFrom(address,address,uint256)": {
        "details": "This function assumes the operator is attempting to transfer an ERC-721      if valueOrId is less than or equal to current max id."
      },
      "transferOwnership(address)": {
        "details": "Transfers ownership of the contract to a new account (`newOwner`). Can only be called by the current owner."
      }
    },
    "version": 1
  },
  "userdoc": {
    "kind": "user",
    "methods": {
      "DOMAIN_SEPARATOR()": {
        "notice": "Returns domain initial domain separator, or recomputes if chain id is not equal to initial chain id"
      },
      "approve(address,uint256)": {
        "notice": "Function for token approvals"
      },
      "ownerOf(uint256)": {
        "notice": "Function to find owner of a given ERC-721 token"
      },
      "permit(address,address,uint256,uint256,uint8,bytes32,bytes32)": {
        "notice": "Function for EIP-2612 permits"
      },
      "safeTransferFrom(address,address,uint256)": {
        "notice": "Function for ERC-721 transfers with contract support."
      },
      "safeTransferFrom(address,address,uint256,bytes)": {
        "notice": "Function for ERC-721 transfers with contract support and callback data."
      },
      "setApprovalForAll(address,bool)": {
        "notice": "Function for ERC-721 approvals"
      },
      "tokenURI(uint256)": {
        "notice": "tokenURI must be implemented by child contract"
      },
      "transfer(address,uint256)": {
        "notice": "Function for ERC-20 transfers."
      },
      "transferFrom(address,address,uint256)": {
        "notice": "Function for mixed transfers from an operator that may be different than 'from'."
      }
    },
    "version": 1
  },
  "storageLayout": {
    "storage": [
      {
        "astId": 8,
        "contract": "contracts/frog-war/FrogWars.sol:FrogWars",
        "label": "_owner",
        "offset": 0,
        "slot": "0",
        "type": "t_address"
      },
      {
        "astId": 1611,
        "contract": "contracts/frog-war/FrogWars.sol:FrogWars",
        "label": "_storedERC721Ids",
        "offset": 0,
        "slot": "1",
        "type": "t_struct(Uint256Deque)3419_storage"
      },
      {
        "astId": 1614,
        "contract": "contracts/frog-war/FrogWars.sol:FrogWars",
        "label": "name",
        "offset": 0,
        "slot": "3",
        "type": "t_string_storage"
      },
      {
        "astId": 1617,
        "contract": "contracts/frog-war/FrogWars.sol:FrogWars",
        "label": "symbol",
        "offset": 0,
        "slot": "4",
        "type": "t_string_storage"
      },
      {
        "astId": 1626,
        "contract": "contracts/frog-war/FrogWars.sol:FrogWars",
        "label": "totalSupply",
        "offset": 0,
        "slot": "5",
        "type": "t_uint256"
      },
      {
        "astId": 1629,
        "contract": "contracts/frog-war/FrogWars.sol:FrogWars",
        "label": "_minted",
        "offset": 0,
        "slot": "6",
        "type": "t_uint256"
      },
      {
        "astId": 1640,
        "contract": "contracts/frog-war/FrogWars.sol:FrogWars",
        "label": "balanceOf",
        "offset": 0,
        "slot": "7",
        "type": "t_mapping(t_address,t_uint256)"
      },
      {
        "astId": 1647,
        "contract": "contracts/frog-war/FrogWars.sol:FrogWars",
        "label": "allowance",
        "offset": 0,
        "slot": "8",
        "type": "t_mapping(t_address,t_mapping(t_address,t_uint256))"
      },
      {
        "astId": 1652,
        "contract": "contracts/frog-war/FrogWars.sol:FrogWars",
        "label": "getApproved",
        "offset": 0,
        "slot": "9",
        "type": "t_mapping(t_uint256,t_address)"
      },
      {
        "astId": 1659,
        "contract": "contracts/frog-war/FrogWars.sol:FrogWars",
        "label": "isApprovedForAll",
        "offset": 0,
        "slot": "10",
        "type": "t_mapping(t_address,t_mapping(t_address,t_bool))"
      },
      {
        "astId": 1664,
        "contract": "contracts/frog-war/FrogWars.sol:FrogWars",
        "label": "_ownedData",
        "offset": 0,
        "slot": "11",
        "type": "t_mapping(t_uint256,t_uint256)"
      },
      {
        "astId": 1670,
        "contract": "contracts/frog-war/FrogWars.sol:FrogWars",
        "label": "_owned",
        "offset": 0,
        "slot": "12",
        "type": "t_mapping(t_address,t_array(t_uint256)dyn_storage)"
      },
      {
        "astId": 1675,
        "contract": "contracts/frog-war/FrogWars.sol:FrogWars",
        "label": "whitelist",
        "offset": 0,
        "slot": "13",
        "type": "t_mapping(t_address,t_bool)"
      },
      {
        "astId": 1680,
        "contract": "contracts/frog-war/FrogWars.sol:FrogWars",
        "label": "nonces",
        "offset": 0,
        "slot": "14",
        "type": "t_mapping(t_address,t_uint256)"
      },
      {
        "astId": 3053,
        "contract": "contracts/frog-war/FrogWars.sol:FrogWars",
        "label": "baseUri_",
        "offset": 0,
        "slot": "15",
        "type": "t_string_storage"
      }
    ],
    "types": {
      "t_address": {
        "encoding": "inplace",
        "label": "address",
        "numberOfBytes": "20"
      },
      "t_array(t_uint256)dyn_storage": {
        "base": "t_uint256",
        "encoding": "dynamic_array",
        "label": "uint256[]",
        "numberOfBytes": "32"
      },
      "t_bool": {
        "encoding": "inplace",
        "label": "bool",
        "numberOfBytes": "1"
      },
      "t_mapping(t_address,t_array(t_uint256)dyn_storage)": {
        "encoding": "mapping",
        "key": "t_address",
        "label": "mapping(address => uint256[])",
        "numberOfBytes": "32",
        "value": "t_array(t_uint256)dyn_storage"
      },
      "t_mapping(t_address,t_bool)": {
        "encoding": "mapping",
        "key": "t_address",
        "label": "mapping(address => bool)",
        "numberOfBytes": "32",
        "value": "t_bool"
      },
      "t_mapping(t_address,t_mapping(t_address,t_bool))": {
        "encoding": "mapping",
        "key": "t_address",
        "label": "mapping(address => mapping(address => bool))",
        "numberOfBytes": "32",
        "value": "t_mapping(t_address,t_bool)"
      },
      "t_mapping(t_address,t_mapping(t_address,t_uint256))": {
        "encoding": "mapping",
        "key": "t_address",
        "label": "mapping(address => mapping(address => uint256))",
        "numberOfBytes": "32",
        "value": "t_mapping(t_address,t_uint256)"
      },
      "t_mapping(t_address,t_uint256)": {
        "encoding": "mapping",
        "key": "t_address",
        "label": "mapping(address => uint256)",
        "numberOfBytes": "32",
        "value": "t_uint256"
      },
      "t_mapping(t_uint128,t_uint256)": {
        "encoding": "mapping",
        "key": "t_uint128",
        "label": "mapping(uint128 => uint256)",
        "numberOfBytes": "32",
        "value": "t_uint256"
      },
      "t_mapping(t_uint256,t_address)": {
        "encoding": "mapping",
        "key": "t_uint256",
        "label": "mapping(uint256 => address)",
        "numberOfBytes": "32",
        "value": "t_address"
      },
      "t_mapping(t_uint256,t_uint256)": {
        "encoding": "mapping",
        "key": "t_uint256",
        "label": "mapping(uint256 => uint256)",
        "numberOfBytes": "32",
        "value": "t_uint256"
      },
      "t_string_storage": {
        "encoding": "bytes",
        "label": "string",
        "numberOfBytes": "32"
      },
      "t_struct(Uint256Deque)3419_storage": {
        "encoding": "inplace",
        "label": "struct DoubleEndedQueue.Uint256Deque",
        "members": [
          {
            "astId": 3412,
            "contract": "contracts/frog-war/FrogWars.sol:FrogWars",
            "label": "_begin",
            "offset": 0,
            "slot": "0",
            "type": "t_uint128"
          },
          {
            "astId": 3414,
            "contract": "contracts/frog-war/FrogWars.sol:FrogWars",
            "label": "_end",
            "offset": 16,
            "slot": "0",
            "type": "t_uint128"
          },
          {
            "astId": 3418,
            "contract": "contracts/frog-war/FrogWars.sol:FrogWars",
            "label": "_data",
            "offset": 0,
            "slot": "1",
            "type": "t_mapping(t_uint128,t_uint256)"
          }
        ],
        "numberOfBytes": "64"
      },
      "t_uint128": {
        "encoding": "inplace",
        "label": "uint128",
        "numberOfBytes": "16"
      },
      "t_uint256": {
        "encoding": "inplace",
        "label": "uint256",
        "numberOfBytes": "32"
      }
    }
  }
}